:100000000C9434000C9451000C9451000C94510049
:100010000C9451000C9451000C9451000C9451001C
:100020000C9451000C9451000C9451000C9451000C
:100030000C9451000C9451000C949D000C945100B0
:100040000C94C6000C9451000C9451000C94510077
:100050000C9451000C9451000C9451000C945100DC
:100060000C9451000C94510011241FBECFEFD8E026
:10007000DEBFCDBF11E0A0E0B1E0E2E1F7E002C0F9
:1000800005900D92A230B107D9F721E0A2E0B1E0CE
:1000900001C01D92A730B207E1F70E94D5000C9471
:1000A00087030C94000089B18073803161F0803245
:1000B000A1F481E0809303018BB18F778BB98BB171
:1000C00080648BB9089582E0809303018BB18068CE
:1000D0008BB98BB18F7B8BB9089583E0809303013B
:1000E0008BB18F7B8BB98BB18F778BB9089589B129
:1000F0008C70843031F0883041F481E080930201CB
:10010000089582E080930201089583E080930201C4
:10011000089584B58C7F84BD85B5877F85BDEEE667
:10012000F0E080818260808380818160808317BC61
:1001300085B5826085BD789408951F920F920FB6A1
:100140000F9211248F9380910301823059F08330F4
:1001500081F0813091F485B1826085B985B18E7F5F
:1001600085B90EC085B1816085B985B18D7F85B9AE
:1001700007C085B1836085B903C085B1836085B947
:100180008F910F900FBE0F901F9018951F920F9296
:100190000FB60F9211248F9385B1836085B98F912B
:1001A0000F900FBE0F901F90189587E084B980ECD8
:1001B0008AB98AB1837C8AB98BB18C638BB985B1DA
:1001C000846085B90E94890081E00E94EA018FEF76
:1001D00087BD83E00E94ED0187BD0E94770080917A
:1001E0000201813021F4809300010E94530080912C
:1001F0000201823071F781E00E94ED01C82F80E09A
:100200000E94ED012C2F30E0A901481B5109CA01C1
:10021000EA01992324F4CC27DD27C41BD50B82E007
:100220000E94ED01682F70E080E090E00E948E0255
:100230002DEC3CEC4CEC5EE30E941A0320E030E035
:1002400048E952E40E94F1010E945D0270E0C61785
:10025000D70764F480910001813041F48093030159
:100260008BB18F7B8BB98BB180688BB981E00E9499
:10027000ED01C82F80E00E94ED012C2F30E0A90194
:10028000481B5109CA01EA01992324F4CC27DD2730
:10029000C41BD50B82E00E94ED01682F70E080E066
:1002A00090E00E948E022DEC3CEC4CEC5EE30E9450
:1002B0001A0320E030E048E952E40E94F1010E9474
:1002C0005D0270E06C177D0774F48091000181304D
:1002D00051F482E0809303018BB18F778BB98BB19E
:1002E00080648BB976CF81E00E94ED01C82F80E059
:1002F0000E94ED012C2F30E0A901481B51099A0101
:1003000022F422273327241B350B223331050CF02E
:1003100060CF82E08093000183E0809303018BB182
:100320008F778BB98BB18F7B8BB953CF982F8091FF
:100330000601811138C022EE20937A00EEE7F0E04A
:100340002081207C2083ECE7F0E020812F73208344
:10035000408150E4959F90011124242B20839130FB
:1003600051F080F09330A9F42CE434E0309305018F
:100370002093040114C024EE3CE030930501209347
:1003800004010DC024EE3CE03093050120930401EC
:1003900006C024EE3CE0309305012093040191E077
:1003A00090930601089581E00895ECE7F0E09081D4
:1003B000907C908390819062908390818F70982B35
:1003C000908387E592E00197F1F700C000008091EB
:1003D000790008950E94960108950E94D50108951C
:1003E0005058BB27AA270E9408020C94E0020E94E2
:1003F000D20238F00E94D90220F039F49F3F19F45C
:1004000026F40C94CF020EF4E095E7FB0C94C9029D
:10041000E92F0E94F10258F3BA17620773078407A5
:10042000950720F079F4A6F50C9413030EF4E095EB
:100430000B2EBA2FA02D0B01B90190010C01CA019E
:10044000A0011124FF27591B99F0593F50F4503E49
:1004500068F11A16F040A22F232F342F4427585F3B
:10046000F3CF469537952795A795F0405395C9F753
:100470007EF41F16BA0B620B730B840BBAF091500B
:10048000A1F0FF0FBB1F661F771F881FC2F70EC0AA
:10049000BA0F621F731F841F48F48795779567957D
:1004A000B795F7959E3F08F0B0CF9395880F08F069
:1004B0009927EE0F9795879508950E94F90288F085
:1004C0009F5798F0B92F9927B751B0F0E1F0660F18
:1004D000771F881F991F1AF0BA95C9F714C0B13059
:1004E00091F00E941303B1E008950C941303672F59
:1004F000782F8827B85F39F0B93FCCF38695779588
:100500006795B395D9F73EF4909580957095619570
:100510007F4F8F4F9F4F0895E89409C097FB3EF49B
:1005200090958095709561957F4F8F4F9F4F992340
:10053000A9F0F92F96E9BB279395F69587957795BE
:100540006795B795F111F8CFFAF4BB0F11F460FF7E
:100550001BC06F5F7F4F8F4F9F4F16C0882311F0D6
:1005600096E911C0772321F09EE8872F762F05C0EA
:10057000662371F096E8862F70E060E02AF09A9585
:10058000660F771F881FDAF7880F9695879597F97A
:10059000089597F99F6780E870E060E008959FEF05
:1005A00080EC089500240A9416161706180609060A
:1005B000089500240A9412161306140605060895D9
:1005C000092E0394000C11F4882352F0BB0F40F461
:1005D000BF2B11F460FF04C06F5F7F4F8F4F9F4FA1
:1005E000089557FD9058440F551F59F05F3F71F023
:1005F0004795880F97FB991F61F09F3F79F087958A
:100600000895121613061406551FF2CF4695F1DF12
:1006100008C0161617061806991FF1CF86957105A2
:10062000610508940895E894BB2766277727CB01D6
:1006300097F908950E942D030C94E0020E94D202C3
:1006400038F00E94D90220F0952311F00C94C902D1
:100650000C94CF0211240C9414030E94F10270F345
:10066000959FC1F3950F50E0551F629FF001729F57
:10067000BB27F00DB11D639FAA27F00DB11DAA1F66
:10068000649F6627B00DA11D661F829F2227B00DB3
:10069000A11D621F739FB00DA11D621F839FA00D3E
:1006A000611D221F749F3327A00D611D231F849F8E
:1006B000600D211D822F762F6A2F11249F575040E5
:1006C0009AF0F1F088234AF0EE0FFF1FBB1F661F60
:1006D000771F881F91505040A9F79E3F510580F029
:1006E0000C94C9020C9414035F3FE4F3983ED4F3D6
:1006F000869577956795B795F795E7959F5FC1F7CD
:10070000FE2B880F911D9695879597F90895F8947B
:02071000FFCF19
:020712000100E4
:00000001FF
